:081000006F401036245300205C
:101008000000000000000000A0000020D80D002013
:10101800A9BDF9F3980E00200000000000000000B0
:10102800980E0020A0000020000000000000000032
:10103800A000002000000000A00000200000000028
:10104800A0000020A0000020A0000020A000002098
:10105800A000002078110020A0000020000000005F
:10106800A0000020A000002008110020A0000020FF
:10107800500F0020A0000020A0000020A0000020A9
:10108800A0000020A0000020A0000020A000002058
:10109800A0000020A0000020A0000020A000002048
:1010A80001A0B7170040984B41111367070198CB6F
:1010B80003C707011377E70F2388E70013078008A2
:1010C80073370780137787083AC60F100000130795
:1010D80070052380E704130780FA2380E7040F10C4
:1010E8000000B847B70600069506558FB8C703C76E
:1010F800B7041377F70DA385E70403C7A7001367A1
:1011080027012385E700130750142394E7003727A6
:1011180000408346578093F6F60EA302D78089468F
:10112800A303D78003C7E7041377C70F1367170014
:101138002387E70403C7F70213672700A387E7029B
:1011480003C70701136717002388E70023800704F4
:10115800B247F3A707800F10000041018280EFF02B
:101168005FF4171500E01305650B970500009385DC
:10117800650A175600001306669E63FAC5008322A7
:10118800050023A0550011059105E3EAC5FE176582
:1011980003E013052524975500009385259C1386A5
:1011A800C19D63FAC5008322050023A055001105DF
:1011B8009105E3EAC5FE1385019E972501009385F5
:1011C800E5C56377B500232005001105E36DB5FE7D
:1011D80093025002739002BC8D4273904280854204
:1011E800739012BC8962938282887390023097024E
:1011F8000000938222E193E232007390523097E22A
:1012080000E09382A23573901234730020300000FE
:101218004111B7170040985F3AC6945F3247E39C84
:10122800E6FE3245410182804111814601468145F1
:10123800114506C6EF106008B72700401147238301
:10124800E780B7F700E0938707D0984B6D9B98CB62
:10125800984B5D9B98CB7300501001000100B24081
:1012680041018280397122DC4ED652D406DE26DA5C
:101278004AD8B7190040372A0040014681468145BF
:10128800114503D4890003497A8083445A80EF10BA
:10129800C00291472303FA8003C6E90483C7A90063
:1012A80042044180A18B1379F90F93F4F40F13765C
:1012B800F60F99E31366360013078008F3370780A3
:1012C80093F787083EC60F100000B7170040930633
:1012D80070052380D704930580FA2380B7040F1084
:1012E8000000238207022380070432457325058006
:1012F8000F10000073350780137585082AC80F1072
:1013080000002380D7042380B7040F100000238730
:10131800C704238007044246732606800F10000086
:1013280003D68700137606206DC6733707801377B8
:1013380087083ACA0F1000002380D7042380B70417
:101348000F10000003C7F7001377C70FA387E70044
:1013580003C7F70013671700A387E7003727004084
:10136800A303D7808346578093F6F60EA302D7804F
:10137800130780202394E70023800704D247F3A7AC
:1013880007800F100000B7F700E0938707D0984B4D
:101398001367470098CB984B5D9B98CB7300501010
:1013A8000100010013070010937704306397E700EA
:1013B800930780020100FD17F5FF93078008F3B734
:1013C800078093F787083ECE0F100000B71700403C
:1013D800130770052380E704130780FA2380E704C6
:1013E8000F10000037270040A3032781A30297802E
:1013F8002394870023800704F247F3A707800F1080
:101408000000F2506254D2544259B259225A216112
:10141800828073370780137787083ACC0F10000053
:101428002380D7042380B7040F10000003C7F700F8
:101438001377C70FA387E70003C7F70013671700E1
:10144800A387E70037270040A303D7808346578048
:1014580093F6F60EA302D78011472394E700238062
:101468000704E24729BFB717004083D5870037270D
:10147800004003C8A70083C6E70403437780834876
:101488005780C2050111C1811378F80F93E6360021
:101498001373F30F93F8F80F130780087336078058
:1014A8001376860832C20F100000130E70052380D1
:1014B800C705130680FA2380C7040F100000238293
:1014C800070223800704924EF3AE0E800F1000002F
:1014D80073370780137787083AC40F1000002380FA
:1014E800C7052380C7040F1000002387D704238073
:1014F80007042247732707800F100000B7F600E0A3
:1015080003A706D11367470023A8E6D003D707022D
:1015180083A6019EB707800013770760F58F498F70
:1015280063910718E57791075D8F4207418393061A
:101538008008F3B7068093F787083EC60F100000AF
:10154800B7170040130670052380C704130E80FAEE
:101558002380C7050F1000002390E70203C7A700E8
:10156800136727002385E700238007043247732782
:1015780007800F10000003D7870013770720630642
:101588000712F3B6068093F6860836C80F100000D7
:101598002380C7042380C7050F10000003C7F70086
:1015A8001377C70FA387E70003C7F7001367170070
:1015B800A387E70037270040A303C78083465780E7
:1015C80093F6F60EA302D780130780202394E70032
:1015D80023800704C247F3A707800F10000037F7DE
:1015E80000E0832707D1DD9B2328F7D07300501034
:1015F80001000100218909C9B797004023AE0712ED
:10160800B7C7004023AA072493F705301307001033
:101618006397E700930780020100FD17F5FF1307A2
:101628008008F337078093F787083ECC0F10000037
:10163800B7170040130670052380C704930680FA85
:101648002380D7040F10000037250040A3036580CE
:10165800A30215812394B70023850701238007047B
:10166800E245F3A505800F10000073370780137754
:1016780087083ACE0F1000002380C7042380D704C0
:101688000F10000003D70702460745832390E7029F
:1016980023800704F247F3A707800F1000000561B5
:1016A8008280F177FD177D8FB5BDF3B6068093F67E
:1016B800860836CA0F1000002380C7042380C70598
:1016C8000F10000003C7F7001377C70FA387E700C1
:1016D80003C7F70013671700A387E7003727004001
:1016E800A303C7808346578093F6F60EA302D780DC
:1016F80011472394E70023800704D247E9BD797195
:1017080022D426D2814601468145AA843714004056
:10171800114506D64AD0EF00503A0349E4021305B2
:101728008015DD2E1379C90F1369190093078008F6
:1017380073B70780137787083AC60F10000013069F
:1017480070052300C404930680FA2300D4040F1004
:101758000000230204022300040432477327078091
:101768000F10000073B70780137787083AC80F1067
:1017780000002300C4042300D4040F100000230732
:101788002403230004044247732707800F10000036
:1017980037F700E0130707D00C4B93E545000CCB57
:1017A800F3B5078093F585082ECA0F1000002300B3
:1017B800C4042300D4040F1000008345F40093E50B
:1017C8000504A307B40023000404D245F3A505804B
:1017D8000F100000F3B5078093F585082ECC0F1085
:1017E80000002300C4042300D4040F100000A165E6
:1017F800CD8C2310940223000404E245F3A5058050
:101808000F1000000C4BDD990CCB73005010010039
:101818000100F3B7078093F787083ECE0F1000004A
:101828002300C4042300D4040F100000FD5723161E
:10183800F4028347640493E717002303F4042300A6
:101848000404F247F3A707800F100000B250225497
:1018580092540259456182800111814601468145B1
:10186800114506CEEF007025B727004011472383A6
:10187800E780B717004083C6E70483C7A70093F63D
:10188800F60FA18B99E393E6360013078008F33728
:10189800078093F787083EC20F100000B717004073
:1018A800130670052380C704930580FA2380B704C4
:1018B8000F100000238207022380070412457325B6
:1018C80005800F10000073350780137585082AC43A
:1018D8000F1000002380C7042380B7040F100000F6
:1018E8002387D70423800704A246F3A606800F1097
:1018F800000073370780137787083AC60F10000077
:101908002380C7042380B7040F10000003C7F70023
:101918001377C70FA387E70003C7F70013671700FC
:10192800A387E70037270040A303C7808346578073
:1019380093F6F60EA302D78011472394E70023807D
:101948000704B247F3A707800F100000B7F700E0BD
:10195800938707D0984B1367470098CB984B13672A
:10196800870298CB984B1367870098CB7300501069
:10197800984B1367870098CB730050100100010043
:10198800F24005618280411113068008F337068012
:1019980093F787083EC00F100000B7170040930563
:1019A80070052380B704130880FA238007050F10F9
:1019B8000000238207022380070402477327078059
:1019C8000F100000B7F600E0938606D0984AF17829
:1019D800FD181367470098CA03D7070213770760F3
:1019E800498F33771701E578910833671701420764
:1019F8004183F338068093F8880846C20F10000028
:101A08002380B704238007050F1000002390E70206
:101A180003C7A700136727002385E700238007046F
:101A28001247732707800F1000007336068013765D
:101A3800860832C40F1000002380B70423800705EE
:101A48000F10000003C7F7001377C70FA387E7003D
:101A580003C7F70013671700A387E700372700407D
:101A6800A303B780034657801376F60EA302C780F8
:101A780011472394E70023800704A247F3A70780B0
:101A88000F1000009C4A93E787029CCA9C4A93E780
:101A980087009CCA730050109C4A93E787009CCA31
:101AA8007300501001000100218909C9B79700404F
:101AB80023AE0712B7C7004023AA0724930780085C
:101AC800F3B7078093F787083EC60F100000B717D3
:101AD8000040130770052380E704130780FA23806A
:101AE800E7040F10000003D7070246074583239039
:101AF800E70223800704B247F3A707800F1000000E
:101B0800410182809387419E984309C79C438297ED
:101B180023A2019E73002030B7F70700DC53411160
:101B280023A0F19EB7170040984B1367070198CB85
:101B380003C707011377E70F2388E7001307800817
:101B480073370780137787083AC60F10000013070A
:101B580070052380E704130780FA2380E7040F1039
:101B680000001307000C6319E50203D78700136709
:101B7800070C2394E700B717004003C70701136752
:101B880017002388E70023800704B247F3A70780DC
:101B98000F1000004101828003C7A700937605203B
:101BA800C9C2118B39E703C7E70403C6E7041377F3
:101BB800F70F136636002387C70403C6A70013660A
:101BC80046002385C70003D6870083D587004206D1
:101BD80093E5050C2394B7004182A5470100FD1742
:101BE80093F7F70FE5FFB71700402394C700238743
:101BF800E70493770510DDCB371700408347A7002C
:101C080093E707012305F7009377F50185E3B727E5
:101C1800004003C7578013670701A382E7801D4769
:101C280015A0136727002385E700E1B72547636BF5
:101C3800F704B727004003C757801377F70EA3822E
:101C4800E780054742054181A383E780B717004035
:101C58001367050C2394E7002394A700C9C203C7A0
:101C6800570483C65704418B858A558F09F703C7E4
:101C78002701418B09D303C7A7001377D70F238503
:101C8800E700D5BD9377050199EBB727004003C757
:101C980057801377F70EA382E780094765B7B72700
:101CA800004003C757801377F70E85BF93778501E8
:101CB80081EFB727004003C757801377F70EA38239
:101CC800E78013071005BDBFB727004003C757803B
:101CD8001377F70EA382E78013077005A5B703C72C
:101CE800A7001377B70F61BF37E700E01C435443E1
:101CF8007D56A183E206D58F9306071890C2D0C2FD
:101D080017060000130646E097F6FFFF9386862F16
:101D18008C5E90DE23A2A19E11661305071010C1E8
:101D2800130707201388419E10C30327080075FF77
:101D380037E700E011662320C7180F1000008CDE7B
:101D4800939687002320D710E1832322F7108280FF
:101D58000111814601468145114506CEB92B9307ED
:101D68008008F3B7078093F787083EC60F10000076
:101D7800B7170040130770052380E704130780FA9C
:101D88002380E7040F10000003C7670413671700D8
:101D98002383E70423800704B247F3A707800F10C3
:101DA8000000F2400561828037E700E01C4354439D
:101DB800A183E206D58F1CC1FD572320F7182322E3
:101DC800F718828013178500B7E700E023A0E71013
:101DD800618123A2A7108280411181460146814575
:101DE8001145E12913078008F337078093F787081F
:101DF8003EC40F100000B71700401306700523807B
:101E0800C704930680FA2380D7040F100000FD55FD
:101E18002396B70223800704A245F3A505800F1077
:101E2800000073370780137787083AC60F10000041
:101E38002380C7042380D7040F10000003C767045A
:101E4800136717002383E70423800704B247F3A727
:101E580007800F10000001A09307E0043305F50286
:101E680095473355F50201007D1575FD82804111B6
:101E780022C406C62A847D1442041305803E41808C
:101E8800E13F75F8B2402244410182802E96AA872C
:101E98000F70B678828000009305000273A0458019
:101EA80082457390153492402242B2424243D24353
:101EB8006244F244025592552256B2564257D257BE
:101EC8006258F25806499649264AB64A464BD64BB6
:101ED800664CF64C065D965D265EB65E465FD65F3E
:101EE8000961730020304111B7170040985F3AC666
:101EF800945F3247E39CE6FE324541018280B7E7B2
:101F080000E03707001023A0E720828041119307E3
:101F18008008F3B7078093F787083EC60F100000C4
:101F2800B7170040130770052380E704130780FAEA
:101F38002380E7040F100000C8DB23800704B247A2
:101F4800F3A707800F10000023A601A24101828099
:101F5800B7170040130700032388E702854723A625
:101F6800F1A273002030B717004083A7470C096718
:101F7800F98F639B0716797122D44AD006D626D2E8
:101F88004ECE52CC930730032A891304D5FC63E75D
:101F9800A7003704C0A81304D4FC2A9448002935A4
:101FA800EFF00FA7B307A4406376A400B707C0A853
:101FB800A297898F3747F6A68117130707C6637D4F
:101FC800F700124501350945B2502254925402597E
:101FD800F249624A4561828022850D3F130700035A
:101FE800B71700402388E702373700408347570078
:101FF80093F70704BDCB3714004083470403E20777
:10200800E18763CF070C6945BD3A8347E40493042D
:10201800800893E7370073B70480137787083AC4BA
:102028000F100000130A700523004405930980FA75
:10203800230034050F1000002307F40423000404D0
:10204800A247F3A707800F10000083470403E207A5
:10205800E18763CE070013058057FD3B1305503415
:10206800653C12458533014585B7010041B79307A3
:1020780000032308F4024A85513DF3B4048093F425
:10208800840826C60F1000002300440523003405E9
:102098000F1000008347A40093E787002305F4008E
:1020A80023000404B247F3A707800F1000008347FA
:1020B8000403E207E18763C40700EFF0EFF91305B3
:1020C8005034993CB7170040130700032388E702F0
:1020D8001245CD390545975000E0E78020C461B727
:1020E8001245CD310D45CDB501458280411122C43F
:1020F80006C637140040A301040497C000E0E78037
:10210800A0B7EF00D02BC5BF373700408347470043
:102118009946BD8B6394D70083475700B735004075
:10212800138701A8138811A89708010093884846C7
:102138001385E1A72DA003C68500834707008346C2
:1021480008001376F60F850793F7F70F639ED700FD
:10215800835705008507C207C1832310F50083C78D
:10216800A500F1FB7300203083460700C696238044
:10217800C6002300F700E5B7197106C212C416C6D7
:102188001AC81ECA22CC26CE2AD02ED232D436D68F
:102198003AD83EDA42DC46DECAC0CEC2D2C4D6C67F
:1021A800DAC8DECAE2CCE6CEEAD0EED2F2D4F6D66F
:1021B800FAD8FEDA938541A28841E70005009240EB
:1021C8002242B2424243D2436244F24402559255FB
:1021D8002256B2564257D2576258F2580649964983
:1021E800264AB64A464BD64B664CF64C065D965D7B
:1021F800265EB65E465FD65F096173002030230312
:10220800048015472303E48001002302A480828010
:1022180083076480E3CE07FE23030480828083075C
:102228006480E3CE07FE0345448082808307648090
:10223800E3CE07FE2302A4808280411126C44AC24D
:102248004EC006C61377F50BAD47AA892E8995446B
:102258006306F70019456537653F8D444E85453758
:10226800FD59FD1463983401B240A24412498249D1
:1022780041018280135509011375F50F453F220965
:10228800CDB7011126CC06CEB70408005137154545
:10229800BD37713769372AC6A53F32459377150090
:1022A80089EB136515001375F50FF240E2440561DB
:1022B8008280FD14E9FC0145CDBF3971B7F70700ED
:1022C80006DE26DC4ADA4ED852D656D45AD25ED02A
:1022D80062CE03AB47027D57B7E700E083AA070049
:1022E80022C603AA470023A0E71823A2E718B71BB2
:1022F8000040930770052380FB04930780FA23802E
:10230800FB0483C74B041147AA8993E7070E23826E
:10231800FB04372400401305F00F2303E4802E8CC0
:102328003289B684E93DED35938779FF93F7F70F46
:102338000947137BFB006362F712A14737070800C0
:102348006307FB00B70707003E9C378707007955EE
:10235800637EEC02B3878401636AF702A947639836
:10236800F90689E481446D3526850DA0E285094585
:10237800E93505090345F9FFFD14050C453D81C400
:102388009377FC0FFDF7F53D69FD7D55B7170040C4
:10239800130770052380E704130780FA2380E704F6
:1023A80003C74704418B2382E704F250B7E700E0F4
:1023B80023A0571123A24711E25432445259C2595B
:1023C800325AA25A125B825B724C21618280A54705
:1023D800639AF906A1478569631DFB029387F9FF94
:1023E800B3869700B374FC00B69493C7F7FFFD8CCF
:1023F80033FC8701416B856B9387F9FFB3F787013E
:1024080099E363FF340193D94900C147E3E637FFF5
:1024180091BF9307F00FE9B78567C169FD17C9B781
:102428001305800D6388690113050002638479012F
:1024380013051008E2851135A93521D94E9CB384BE
:102448003441C1B7E2852D45CD3BCA94E30C99F0E0
:102458000509F133A30FA9FED5BF9387F9FF93F7B9
:10246800F70F636FF70AA1476319FB06B707080060
:102478003E9C83C75B043707070093F7070299E37D
:1024880037870700B70708003E977955E370ECF0E7
:10249800B3079C00E36CF7EE8947639AF9048980D7
:1024A800D549E38104ECE2850945413B110903273D
:1024B800C9FF91472320E48003076480E34E07FEA9
:1024C80023033481FD17EDFBFD14110C81C49377B0
:1024D800FC0FE9FF7D3371F54DBD83C75B043707FA
:1024E800070093F70702D5F33787070079BF8547B9
:1024F800E384F9F2E2852D4589339389F4FFE38378
:1025080004E6313B93F7390091EB832604800327D7
:10251800090093074900E398E6E43E89CE84F1BFB9
:10252800B5476396F9001305900BD13925BDB1471E
:102538001305B00AE38BF9FE99476394F904A147A0
:102548006315FB00B70708003E9CE2852D45F53171
:1025580081440D4BA149E1316396640183270480CE
:102568002320F9008504E39834FF83270480131798
:102578002C01635507002312F900EDB32322F9005B
:10258800D5B39D476399F90281451305B0047531A8
:10259800BD442320090023220900FD59493193F73E
:1025A8007400CA9703C70700FD14398D2380A7005C
:1025B800E39634FF45BB91476399F900130560061C
:1025C8003D39B931130590098DB7E38D09D8F15418
:1025D80059BB23AC05FE1C4199E30CC182803E87A0
:1025E80083A787FFEDFF232CB7FE8280411126C207
:1025F800B7E400E04AC003A90400B707200006C6F4
:1026080022C43379F90023A0F4180F10000009E55B
:1026180023A02411014535A09565938505D0C98D62
:102628002A842105B3C5050833450508EF10902E07
:1026380065D1FD572320050042A17CA123A02411C8
:102648002105B2402244924402494101828041114D
:10265800B7E700E04AC003A9070026C237072000F1
:1026680006C622C4AA843379E90023A0E7180F100C
:10267800000083A781A80144014685E301C8A2851B
:10268800138581A897E000E0E780A0A2A1652685D0
:1026980097E000E0E780E0F30DA003C7E7FF6319C8
:1026A800970205CCA285138581A897E000E0E78012
:1026B80040A0A1652685EF208015B24022852244DE
:1026C800B7E700E023A02711924402494101828024
:1026D80011E03E8683A787FF4DB73E84E5BF37E705
:1026E80000E01C43B70620002320D718F58F0F10F1
:1026F800000019C191C111E637E700E02320F71067
:1027080082802E960F70B650D5BF37E700E01C4385
:10271800B70620002320D718F58F0F10000019C125
:10272800014785E137E700E02320F7108280B38670
:10273800E50003A80600B306E5007D1623A0060100
:10274800110775F6C5B737E700E01C43B706200048
:102758002320D718F58F0F10000001C53307C500D7
:1027680011E637E700E02320F71082800505A30F64
:10277800B5FEE31DE5FEF5B7B7E600E09C42370677
:1027880020002A87F18F23A0C6180F1000000145EA
:10279800B306A7008386060091E637E700E023200A
:1027A800F71082800505EDB70111B7E700E026CAEA
:1027B80084434AC83707200006CE22CC2A892E86B1
:1027C800F98C23A0E7180F1000009305F00432C617
:1027D80033450608EF1010142A8401C53246CA850D
:1027E800FD3DF24022856244B7E700E023A0971040
:1027F8004249D2440561828037E700E01C43B706AE
:1028080020002320D718F58F0F10000001C599C1AB
:10281800014711EA37E700E02320F71005458280D9
:102828000507E309E6FE3308E500B386E50003483B
:1028380008009422E306D8FE37E700E02320F710CB
:102848000145828037E700E01C43B70620002320BB
:10285800D718F58F0F1000001307F6FFBA952A96C0
:102868006317C50037E700E02320F710828098211E
:10287800FD150505A30FE5FEE5B737E700E01C43A6
:10288800B70620002320D718F58F0F10000001C5C8
:102898003307C50019E637E700E02320F7100145A4
:1028A800828014210505E398B6FEE31CE5FE37E7B0
:1028B80000E02320F71005458280797126D29384A1
:1028C80001AA22D4804006D64AD04ECE52CC56CA4F
:1028D8005AC85EC662C44DC437C9C901814B138B3F
:1028E80081A91309F937170A0100130AAAEF970AF1
:1028F8000100938AAAEC970901009389A9F33E2065
:1029080099EF5C44639A0B009CC0032CC400228599
:10291800EF10B00C628489A823A6FB00FDB78327BB
:102928000B0082971C443307F5406376F50003A734
:1029380089001D8F2A976368E9062E200820EF106A
:10294800106D5C405844A9CB0C44170601000326BF
:10295800E6EEAE97BE8663E4B70063E4C700B386CD
:10296800C74014C4A28B3A8459F8170701000327FB
:10297800E7E5894763E6E7009707010023A807E42E
:10298800B250225492540259F249624AD24A424BF6
:10299800B24B224C4561828063940B0098C0B5B756
:1029A80023A6EB009DB703274A021DCB63EDA702C0
:1029B8003385A7401C2099EF03479A0183A6890015
:1029C8006117B307A7003E8563E4E70063E4D70017
:1029D8003385D74083A70A016374F50023A8AA00AA
:1029E800A28B404451B703A78900BA97D1B7011108
:1029F80026CA06CE970401009384C4E322CC4AC8B1
:102A08004EC652C49C288844D9CFB7E700E003A932
:102A180007003707200023A0E7183379E9000F10D3
:102A2800000003C701A919CB23A02711F240624473
:102A3800D2444249B249224A0561828017070100FF
:102A48001307C7108357C70AA1CB9C440324870ADE
:102A58006304F40497090100938949D603A709017F
:102A68002285630BF702138A81A983270A008297BC
:102A78006368A40C83270A00098C829783A709013D
:102A880098443354F40AB307A4003E8563E48700EE
:102A980063E4E7003385E740B7E700E023A02711A8
:102AA8009C44639BA70217040100130424D118480F
:102AB80083A781A96319A70882979444374736FEEC
:102AC800130707C83697B307A7003E8563E4E700F6
:102AD80063E4D7003385D740170401001304042AA0
:102AE8005C5C89CB83A6C1BB9C463707CDFF7D17AD
:102AF800F98F9CC611E1884485475CD0970701008F
:102B080083A787D0829715E15C5C99CF5C5089CF09
:102B1800978002E0E780E0BD977002E0E78080419F
:102B28009707010023AE0726493B5C5CE38007F06A
:102B380003A7C1BB1C47B7063300D58F1CC7FDB51B
:102B48009C443E9405BF829714489844B387A600D6
:102B58003E8563E4D700E3E1E7F83385E740ADBF9E
:102B680023A6A1A801C585472388F1A88280AA8742
:102B780099E5170701000347E7CC09C7D5B71147FF
:102B88006369B70017070100130787C9B3C5E520B4
:102B98009CC1828083A7C1A881CF411106C68297B4
:102BA80083C701A999E323A601A8B2404101828005
:102BB80083C701A981E723A601A8828082804111E9
:102BC80022C426C206C64AC0970401009384041B87
:102BD80083C7340217040100130484C4B9C317045B
:102BE80001001304A4BD138941AA032709001C206E
:102BF80014300146B3A5E7208E21B5C911C21CA027
:102C08000820636DD50697070100238907BA83A7B3
:102C180081A9D5E7B2402244924402494101828009
:102C280082971C40F5FF9707010083C7A7C185E37A
:102C3800DC48858B89CFD84C9947631EF7009707E6
:102C4800010023A70714EF1000105C4482971C446E
:102C5800D9D7829769B7D84C9D47E31AF7FE9707EB
:102C6800010023A70712EF10000E1C48C5B78507FF
:102C780093F7F70F0546E3EFD7F651B73327E5206B
:102C88000E2323100700239901A883A7C1A9B347DE
:102C9800F5209C4382971C208326090003D721A98D
:102CA8003377E540B3A6D7209222518F9AA299C3D1
:102CB80085071CA018201C30E36EF7F4A9B7970706
:102CC800010083A7A7B71CC8CD3E83C73402B9F358
:102CD80083C7140299CBDC4C89EB97070100A38FBB
:102CE800070A977002E0E78040419707010083A731
:102CF800A7B18DD31C4899DF183083260900814776
:102D080063C7E702D84C9147E3E6E7F0970701006D
:102D180083C747E2918BE39F07EE83C701A9E39B33
:102D280007EE2244B240924402494101C9B133A698
:102D3800D7201222E31006EE8507D9B7B7C700409F
:102D48001387C72014431396264910C301000100B6
:102D58009387872617050100032505A89C436A0564
:102D680014C393C7F7FF99835D8D828023A6A1AA18
:102D78008280411122C417040100130424001C445A
:102D880026C206C6858B9704010083A464E291EBF2
:102D9800EF20B0472244B2402685924441016F108B
:102DA800704398289707010023AE07FC8947E30181
:102DB800F7FE0146930550020145EF1000298145B1
:102DC80017D501E01305E5535D33014681450545F7
:102DD800EF10400E5C44858BC5DFB240224492441C
:102DE800410182809707010083A747E0639B07168C
:102DF800011122CC2A84094506CE26CA4AC84EC6E5
:102E0800EF2050489389C1BA03A6090093078007A9
:102E18001389C1B97CD2238801A883270900938428
:102E2800C1BBB7053300D8572285719B13671700BC
:102E3800D8D798431377F7CF98C398431377F7CF2A
:102E48001367072098C398401447CD8E14C7B70658
:102E580003009386862534CA5457F59A54D7984365
:102E68003424137707F893F6F607558F98C3EF10B5
:102E7800904D83A60900370500827D15DC4293E753
:102E88001700DCC203260900030784065C56937505
:102E9800F703E605E98FCD8F5CD69305A0039C4028
:102EA80063D5E508F84FB70500074D8FF8CFB7C7CA
:102EB800898E938767ED1CC6B7575500938757557A
:102EC8005CC28347A40683444406DD8C8947170700
:102ED80001002323F7EC9707010023A707EA7C44A6
:102EE800BCDE9707010083C7E79599C7FC52FDFF31
:102EF8009707010023A807E818289D47814517254B
:102F080000001305C5036306F70017050000130545
:102F180085E6B13910386244F2404249B249A68583
:102F2800D244014505616F00F0789305200263DA09
:102F3800E500F84FB70500F9FD156D8FB7050005D9
:102F4800ADB7B70500F96945FD156357E500F84FBA
:102F58006D8FB705000391BFF84F6D8F1317872941
:102F6800B1B7828097070100938747BEE8530547AA
:102F780054256390E60203C747079147631AF70091
:102F8800011106CE2AC6EF10F0203245F240056145
:102F980091BD828083278511E5CB411122C406C6E5
:102FA80058258345E5049437D2272A841377C70F19
:102FB8001395466063F7C50663510506882793F69F
:102FC800F60794B70546936627006314C500936611
:102FD800170054A4D8430907D8C3032504114CB8D3
:102FE8002E86CC430905EFF08FEF832784115438E0
:102FF800D8433697D8C3DA27158FDAA789473CBC58
:103008000347640397F7000083C7E77E6369F70601
:10301800B24022440145410182801367170058A439
:103028006DBF9376F60F63550502882785451366AD
:1030380027006314B5001366170050A454B8A3847E
:10304800070085473CBC832784119C43D5FBC9B73F
:103058001367170058A454B8A38407000325041164
:10306800CC430905EFF0AFE7832784115438D843E0
:103078003697D8C3DA27158FDAA78D47E1B75C24CE
:1030880093E707015CA469B705458280411183A7CE
:1030980041B822C406C6858B2A84CDEB782983578C
:1030A800051D63E5E70A4165130525F597F001E07D
:1030B800E780E0EE41CD3C253EA583270412ADE331
:1030C8002320A4122322A41285472311F4042320C9
:1030D80005007C2854415EA5583418A5054718B545
:1030E8001385170217070100032707CD15811C4315
:1030F8007D151375F50F9CC25C43DCC21C479CC64A
:103108005C47DCC61C4B9CCA5C4BDCCA1C4F9CCE83
:103118005C4FDCCE0DC19386060213070702C1BFC0
:103128008327441288C3835724042322A4128507C3
:10313800B3C7070859BF17070100130727A11E27A0
:1031480085071EA7B2402244410182805C242309DE
:103158000400054593C747005CA4EDB7142D8547C7
:1031680063ECD70A1C3D2A870145CDEB5C2713F594
:1031780007013C2B99CB8346670397F7000083C769
:10318800976763ECF60001E5828049E58280835702
:10319800271E0357671EBA9721A08357271E75F964
:1031A8000145ADCF9387C71217F500000355456950
:1031B800B3B5A70237460F0041111306062481460E
:1031C80022C426C206C67D543385A702970003E0B1
:1031D800E780400197F4000083C45462AA949707DB
:1031E800010083A7E79F03A707099C433354E40A18
:1031F800FDFB83A781A9829781476364A400B30775
:10320800A440B240224433B59700134515009244B8
:10321800410182808147B5BF01458280828003A732
:10322800C1BA3C5BFDFF01000100828039C9011170
:103238006C0022CC06CE2A84EF20004B15C9FD571E
:10324800630DF502B24797F5000083C5355B63EB64
:10325800B700034594026244F240B385B740056164
:103268006F10405F17F700000327475DBA97D5B77F
:103278006244F24005616F20A00BF2406244056190
:1032880082808280797152CC170A0100130A0A8C55
:1032980026D283244A0906D622D44AD04ECEC5C89F
:1032A80097070100938787ADD44F15476384E604D9
:1032B800DC532A8989CF977002E0E78080439770B2
:1032C80002E0E78020C79707010023AB07ACFD5950
:1032D8006C002685EF2040411DE5172500001305E9
:1032E8006505EFF0FF8783A7C1BA3707100098C7B5
:1032F8000547B8DB0D45B250225492540259F249A1
:10330800624A45618280637435013244AA898440E7
:10331800E1F0FD571305F00FE38FF9FC914763F1D6
:1033280087029307B4FF2320F9002324FA0A99E7B8
:1033380097F7000083A787502320F900014565BF50
:1033480097F7000083A7874FED17A297E9BF0945B4
:103358005DB7797126D206D622D44AD04ECE52CC49
:1033680056CA5AC85EC68347550303447513AA84D0
:103378003E941374F40F9307400263F68700130416
:10338800B4FD1374F40F03A9841383A9C413A38B86
:10339800841222864A85CE85970003E0E78000A143
:1033A800058915E503CBD412014A814A337B6403AE
:1033B800930B500252864A85CE85970003E0E7803A
:1033C800E09E05890DC563916A031374FA0F238B78
:1033D8008412B250225492540259F249624AD24A93
:1033E800424BB24B45618280850A939A4A60050A2E
:1033F800E3127AFDE9BF832785090356050479712D
:1034080093D60701BD8EB3C60608358E935756402E
:10341800898B135776485D8F93573640918B5D8F14
:1034280093571640A18B5D8F93171600C18B5D8F44
:103438009317360093F707025D8F9317560093F79B
:1034480007045D8F9317760093F7F70F22D45D8FEB
:103458002A849357D6001355B6001189898B935542
:103468008600C98F1355F6002582C98F218AD18F0E
:1034780013961500418AD18F1396350013760602EC
:10348800D18F1396550013760604D18F13967500C5
:103498001376F60FD18FA207C5455D8F3307B702A4
:1034A80026D24AD04ECE032984138329C4135AC87E
:1034B80006D652CC56CA3697334707081356574094
:1034C800098A93577748D18F13563740118AD18F7D
:1034D80013561740218AD18F13161700418AD18FAE
:1034E8001316370013760602D18F1316570013767A
:1034F8000604D18F131677001376F60FD18F135861
:10350800B7001356D70013784800098A1355870067
:10351800336606011358F700258333660601218BAD
:10352800518F13161500418A518F131635001376E3
:103538000602518F1316550013760604518F131681
:1035480075001376F60F518F2207D98FB387B7020C
:103558005EC6B697B3C7070813D55740098913D76E
:103568007748498F13D537401189498F13D51740AC
:103578002189498F139517004189498F1395370081
:1035880013750502498F1395570013750504498F64
:10359800139577001375F50F598D13D8B70013D706
:1035A800D70013784800098B13D6870033670701C3
:1035B80013D8F700A58333670701A18BD98F131799
:1035C8001600418BD98F1317360013770702D98F4E
:1035D80013175600137707041E06D98F1376F60FB4
:1035E800D18FA2073367F5003307B70213065002DD
:1035F8004A85CE853697B98EB3C4060833F6C40219
:10360800137BF60F97F002E0E780407A058905E919
:10361800834AD412014A930B5002B38A9A02814416
:1036280093DA0A0126864A85CE8597F002E0E7807C
:10363800E07705890DC563914A0313FBF40F230B4B
:103648006413B250225492540259F249624AD24A3F
:10365800424BB24B45618280050A137AFA0F850402
:10366800E39274FDE9BF8327C5080356850879717D
:1036780093D60701BD8EB3C60608358E93575640BC
:10368800898B135776485D8F93573640918B5D8FA2
:1036980093571640A18B5D8F93171600C18B5D8FD2
:1036A8009317360093F707025D8F9317560093F729
:1036B80007045D8F9317760093F7F70F22D45D8F79
:1036C8002A849357D6001355B6001189898B9355D0
:1036D8008600C98F1355F6002582C98F218AD18F9C
:1036E80013961500418AD18F13963500137606027A
:1036F800D18F1396550013760604D18F1396750053
:103708001376F60FD18FA207C5455D8F3307B70231
:1037180026D24AD04ECE0329040A8329440A5AC81D
:1037280006D652CC56CA3697334707081356574021
:10373800098A93577748D18F13563740118AD18F0A
:1037480013561740218AD18F13161700418AD18F3B
:103758001316370013760602D18F13165700137607
:103768000604D18F131677001376F60FD18F1358EE
:10377800B7001356D70013784800098A13558700F5
:10378800336606011358F700258333660601218B3B
:10379800518F13161500418A518F13163500137671
:1037A8000602518F1316550013760604518F13160F
:1037B80075001376F60F518F2207D98FB387B7029A
:1037C8005EC6B697B3C7070813D55740098913D7FC
:1037D8007748498F13D537401189498F13D517403A
:1037E8002189498F139517004189498F139537000F
:1037F80013750502498F1395570013750504498FF2
:10380800139577001375F50F598D13D8B70013D793
:10381800D70013784800098B13D687003367070150
:1038280013D8F700A58333670701A18BD98F131726
:103838001600418BD98F1317360013770702D98FDB
:1038480013175600137707041E06D98F1376F60F41
:10385800D18FA2073367F5003307B702130650026A
:103868004A85CE853697B98EB3C4060833F6C402A6
:10387800137BF60F97F002E0E7804053058905E9CE
:10388800834A1408014A930B5002B38A9A0281446E
:1038980093DA0A0126864A85CE8597F002E0E7800A
:1038A800E05005890DC563914A0313FBF40F230FFC
:1038B8006407B250225492540259F249624AD24AD9
:1038C800424BB24B45618280050A137AFA0F850490
:1038D800E39274FDE9BF797122D426D22E84AA849A
:1038E8004146972503E09385A5C10A8506D69730FA
:1038F80000E0E780802B4146972503E0938545C08B
:103908000808973000E0E780402A3C3010088A8594
:10391800DC875C2026855C875C30DC86976002E06B
:10392800E780A0390347F1011C200145631EF70019
:103938000347E1011C3001456318F7000345D10135
:103948003C201D8D13351500B25022549254456108
:103958008280011122CC26CA4AC84EC606CEAA8445
:1039680017F400000324C42A13092500854905C05B
:103978009C303830858B6304F700405CCDBF194616
:10398800930544004A85EFE03FE7E31835FFF2402E
:1039980022856244D2444249B2490561828041117C
:1039A80022C426C24AC006C617F4000003244426CF
:1039B80093042500054901E8B24022852244924437
:1039C800024941018280A6851305A4022937E3052F
:1039D80025FF405CCDB7411122C426C24AC006C6A5
:1039E80017F400000324C42293042500054901E8C4
:1039F800B240228522449244024941018280A68530
:103A08001305A401C93DE30525FF405CCDB70111AD
:103A180026CA644122CC4AC84EC652C406CE2A845D
:103A28001D4993096505054A3C4463E4F4000545CE
:103A3800A1A05834DC2063192705034784026304D6
:103A4800F7008440D5B7D83083475405E31BF7FE09
:103A580019469305640513856400EFE0FFD985478F
:103A6800E311F5FED82483479402E31CF7FCFA24FB
:103A78003E34E318F7FC0145F2406244D24442491F
:103A8800B249224A05618280E31DF7FAD83083479C
:103A98005405E318F7FA1946CE8513856400EFE05C
:103AA800BFD5E31045FBC1BF011122CC26CA06CE03
:103AB8002AC42EC617F4000003240415854419E00F
:103AC80001450DA09C841830858B6304F7000044E1
:103AD800FDB719469305A10013052400EFE0DFD1D7
:103AE800E31795FEF2406244D244056182800000EB
:103AF800EFF04F8A7300000000000000938201A9D4
:103B08000383020023800200630F0300F3251034AF
:103B18002EC0970500009385E5FD73901534EF00DE
:103B2800405B7300203086DCEF00A05AE6508280AC
:103B3800000041114AC01389C1B90327090026C2F0
:103B480006C61C5F22C4938481B993D76748B5CF52
:103B5800930700061CDF17F4000013042422184CF6
:103B6800930700086317F7009C409C4393F70704EA
:103B78001CCC1C4093F7070489CB83A781A98297A3
:103B880048D81C4093F7F7FB1CC01C4093F707026A
:103B980089CF1C4003A7C1BAB706080093F7F7FD01
:103BA8001CC05C5414C786077CD71C4893F70704CD
:103BB80089EF85475CC83707020083A7C1BA98C751
:103BC8001307000C18C81854F8D383270900985F06
:103BD8001357474811CF985F1367070198DF83A7EA
:103BE800C1BA23A20706854717F700002320F71A52
:103BF8009C40D8431357174819C7D843759BD8C357
:103C0800D843799BD8C3B240224492440249410127
:103C1800828005377300203097F7000093870716D6
:103C28003707040088DB698F01CF03A7C1BAFD56A7
:103C380034D797F60000938666B8D84E0507D8CED5
:103C48001377850019CF984783A6C1B91367170062
:103C580098C71307000898CBD856719B13671700AD
:103C6800D8D61377150001CFD84383A6C1B91367F7
:103C78001700D8C3D856719B13671700D8D6137787
:103C8800650019CF1377450059C398431367170088
:103C980098C383A6C1B9D856719B13671700D8D6A5
:103CA8004167698F0DC397F6000083C666F1C18A24
:103CB80017F70000130787E9A5C28346470793E66D
:103CC8000602230AD70637070200698F01CF984BEF
:103CD8001377070819C3054798CB83A7C1BA3707D5
:103CE800020098C7B70708007D8D0DC117F70000BF
:103CF800034717ED058B97F70000938727E51DCB42
:103D080003C7570713672700A38AE7068280D847A7
:103D180013671700D8C7B5BF834647070946BD8A4A
:103D28006388C600834647070D46BD8AE39DC6F8EB
:103D3800914641BF03C75707118B69DB03C7570774
:103D480013678700D1B783A6C1BA17F70000130716
:103D5800E7021C43858B91E75C43858B99E3FC5212
:103D6800EDFB97F7000023A5070282809386C1B96F
:103D78002A8788421C5D93D75748D1E781C51C59CB
:103D8800BD839CA115C69C42945BC60693D7660169
:103D980063D6060093E707C0B3C707088316060073
:103DA80093975760B9C6BE968947B3C6F60216A25E
:103DB80083A7C1BABC4B083393D757488DCF29C5C1
:103DC80097F6000083A606FD93F606049307950070
:103DD80009459DCABA979C230547194593F6F706E6
:103DE8006394E60201459397476063DF070039450E
:103DF80082801EA275BF2A9748331375F5077D1573
:103E08003335A00082800545828083A741BA99CBCB
:103E1800944BD04B9842518F98C294439C479842F8
:103E2800D98F9CC21386C1BA0548184283A6C1B966
:103E380097F70000938787F46312050503A8060027
:103E48001368080823A0060183C62702B3C5D52036
:103E580054479385A50C13981649232607010F107C
:103E68000000184237060200860510C7130600082E
:103E780090CB6CD354C72380A1BA82808842137533
:103E8800F5F788C283C62702B3E5D5205447938542
:103E9800E50E1395164948C70F100000184237065B
:103EA8000200860510C71306000890CB6CD354C7D0
:103EB8000945D1B7411122C4AA8706C626C22E8554
:103EC8001384C1BAB285DDE71C40F8537DFF37077C
:103ED800020098C797F7000023A607EA97F40000A6
:103EE80093844490DC5085C7B7E700E0370720008B
:103EF80023A0E728B7F700E0938707D0984B6D9B7E
:103F080098CB984B1367870398CB73005010F53DF7
:103F180083A7C1B998431317772998C3D857719BBA
:103F2800D8D797F7000023A507E697F7000023A93D
:103F380007E41C40094798C3DC5099CB37F700E0E9
:103F4800832707D193E787002328F7D07300501001
:103F5800144017F70000130767E21C47858B91E7A9
:103F68005C47858B99E3FC52EDFBB24022449244B6
:103F7800410182800D47639EE70497F7000023A361
:103F880007E097F7000023A107E097F40000938467
:103F98006485DC5085C7B7E700E03707200023A019
:103FA800E728B7F700E0938707D0984B6D9B98CB2D
:103FB800984B1367870398CB73005010B93583A7C4
:103FC800C1B998431317772998C3D857719BD8D785
:103FD800A5B70547E39EE7F697F600009386868027
:103FE800DC5285C7B7E700E03707200023A0E728A1
:103FF800B7F700E0938707D0984B6D9B98CB984B09
:104008001367870398CB730050101C40D0471317D1
:104018001649D8C70F1000001C403707020098C780
:104028001307000897F5000023A2E5D603A7C1B936
:1040380018431357774819C71307E018F8D3D0C7A0
:10404800DC52E5BD1307E01AD5BF83A741BA89CF73
:10405800D44303A8870098423367070198C2D4471E
:10406800DC4B9842D98F9CC2054783A7C1B99505F7
:10407800631EE50298431367070898C3984F1377A0
:1040880007C01367A71398CF13078007B8BB939788
:1040980035009387C70317F70000130727CE1CD7EF
:1040A8002380A1BA19C2060610D782809843094511
:1040B8001377F7F798C3984F137707C01367271339
:1040C80098CF1307F007B8BB939745009387C703AA
:1040D800D9B783A7C1BA8847D847798D11C588C78A
:1040E80083A781BA91C382878280896703A7C1BAEF
:1040F800938707F47CD383A6C1BB83A7060993D70C
:10410800A74991C783A7060993D7974999E37C5391
:10411800EDF782804111B7E700E022C480433707FA
:10412800200006C6798C23A0E7180F10000011C1E3
:1041380099E5B7E700E023A08710014549A80D05D8
:1041480033450508130740037199B34705086362AF
:10415800A70203A501C583A681C4639FA60017E72C
:1041680000000327276B71D7C207DD8D054502972D
:10417800C9B703A5C1C4C5B77A2131EF5A21636C09
:10418800F704B306F740214817E600001306066354
:104198006375D80283280500035866009386870054
:1041A8001D8FAA966117DAA223A016012393060091
:1041B80014C15EA1130788FF7AA27A226EA1210595
:1041C800B307F7407EA2B7E700E023A08710B2400C
:1041D800224441018280084149B7B7E700E08C4397
:1041E8003707200023A0E718F98D0F10000001E51C
:1041F80023A0B710828003A301C583A881C49A872E
:10420800814663F8170903A807006367F508636523
:10421800A80813878700636EE506F2232167050760
:104228006317E600138631B61822050718A217E5AA
:1042380000001305A558D2237A212393070032974B
:10424800334707087AA16383670203A3C1C4630FD6
:10425800F30003D36600631B0300DE2223A00601DC
:1042680021073E962106D2A27AA1B6879843630217
:10427800170383A6C1C4630ED700762399EAD62311
:1042880052231843A106B296D6A398C37E21A1074C
:104298007EA1B7E700E0A9BFBE86C2879DB7AA87FF
:1042A80003A701C503A681C4B305B5406314E6009E
:1042B8003E8529A8930687001843E3E9D7FEE3F76C
:1042C800E7FE2E85E3E4D5FEE3F2E5FE82804111A8
:1042D80026C206C622C44AC097F4000083A4848C70
:1042E8006383041003A4C40AAA86054535C03C2488
:1042F8001307700A6390E70858301C3417E9000068
:104308001309495303268900B387E7020357C900F5
:10431800B387E7021307003293870719B3D7E70279
:1043280003A744093E97BA846364F7006364C7002F
:10433800B304C74083A781A984C28297B387A440E6
:1043480063F5A40003278900BA9789EB1305F00FDA
:10435800B240224492440249410182805830930677
:10436800204E3307D702E3F3E7FE930780FA3CA415
:104378000145F9BF1307800AE39AE7FC83A781A9DF
:1043880082972A893545EF10E06FAD4717F700008F
:104398002324F7A058301C3417E60000130686497A
:1043A800B387E7025A261046B387E702130700329D
:1043B80093870719B3D7E70203A744093E97BA863C
:1043C8006364F7006364C700B306C740E310D9F815
:1043D80017E502E01305458CEFE08FF883A7C1BA13
:1043E8000947F8D7A5B70545A5B7397156D297FA41
:1043F8000000938AAA9883A70A033707080026DAD9
:1044080006DE22DC4AD84ED652D45AD05ECE62CCD2
:1044180066CA6AC86EC6F98F97E4000083A48478D8
:104428006384071C83A9C40A83C7990003A4C9002D
:1044380092073E942820B14705053305F5025E2012
:104448003E9533450508EFE06F9AAA8C6305051A77
:10445800130DC5002324A50134203146370B030072
:10446800B386C602231304000149138AC1BA938B89
:10447800C1B9938DC1BB130B8B15054CEA9654C477
:1044880083C679009307D00783250A00B386F6020E
:10449800C1679CC5370833008606B4D183A60B00D4
:1044A80090421376F6CF90C290421376F6CF1366F9
:1044B800062090C203A50D0010453366060110C5FD
:1044C80003A6090023A865059305500290C672202B
:1044D8005444B2962324DD0014300146CA96A30141
:1044E800DD0003C5040897F6000023AB0688B13E3B
:1044F80083260A00CC4613961549D0C60F10000033
:1045080083260A003706020090C61306000823A86F
:10451800CA0003A60B00104213567648631F860B89
:104528001306E018F0D2CCC617F600002322068640
:1045380017F600002326068423A08601EFF0BF802B
:10454800EF10A04C83A64A00858AD9CAEA85268539
:1045580097E002E0E780607A0DE903465D0049C212
:1045680076204E20B29663DDB606B428AC48032503
:104578008D00918E8906B695EFE06F9623020D00A7
:1045880003465D007620B29676A003260A00310D18
:104598003452FDFE342005091379F90FE362D9EE90
:1045A8009C246685A381FC001C20A3820C00238325
:1045B800DC002382FC006254F250D2544259B259B2
:1045C800225A925A025BF24B624CD24C424DB24D87
:1045D8002161179301E0670003531306E01A99B7A6
:1045E800FD562302DD0055B783A7C1BAFC5781C722
:1045F80085472388F1A8F2506254D2544259B259DF
:10460800225A925A025BF24B624CD24C424DB24D46
:1046180021618280411122C406C626C24AC02E8466
:104628008DCD13F91500814741476302090413171B
:1046380045003E97B1463307D70283A481AAB31732
:10464800F02833C90708BA949C40C840829723A031
:10465800040023A2040033448900B2402285224486
:104668009244024941018280B356F448E9F2850731
:10467800E39CE7FECDB7011126CA06CE22CC4AC874
:104688004EC6AE84A1C593F7150001444147B1CB8E
:1046980093174500A2973147B387E702938981AA08
:1046A80003A909003E998327090081C7032549000A
:1046B800829731473307E40283A70900BA979C47DA
:1046C8008DC733148028B3470408BD8CF240624478
:1046D8004249B2492685D24405618280B3D68448CE
:1046E800C5FA0504E31CE4FECDB723200900232204
:1046F8000900C1BFAA8703A501AA11E182803A2156
:104708006315B7001821E30BF7FE4845FDB779712B
:10471800B7E700E022D4804352CC06D626D24AD04E
:104728004ECE56CA5AC85EC662C43A8A37072000B7
:10473800798C23A0E7180F10000005E123A087104B
:104748000945B250225492540259F249624AD24A57
:10475800424BB24B224C4561828083A781A9B6891E
:104768002A89AE8A328B938B81AA829703A70B0082
:104778008144B146C147338CD402330687011042C5
:1047880035EEC165938505F04145EFF0BF9819ED09
:1047980097E7000083A7070881C7814511458297DD
:1047A800B7E700E023A087102D4561BF138701AA52
:1047B8001C43A1E308C323000500B31790283EA1BA
:1047C80083A70B0023260500232465012322450126
:1047D800E29723A0270123A2570123A4470163845A
:1047E800090023809900B7E700E023A0871001455E
:1047F80089BF3E87DC47F5FF48C775BF8504E39C42
:10480800F4F6B7E700E023A0871021451DBFB7E7FE
:1048180000E09843B706200023A0D718758F0F1023
:10482800000097E6000083C676F96371D50283A677
:1048380041AA3325D5201621D58D0EA197E6000073
:1048480023A606F823A0E7100145828023A0E710DD
:104858000D4582800111B7E700E022CC804337077D
:10486800200006CE26CA4AC8798C23A0E7180F1064
:104878000000BD4763E7A70431473307E50283A774
:1048880081AABA979C4395CF3315A0282E89B345A2
:10489800050801452EC6B93DAA8409C9B245014596
:1048A80097C000E0E780809823A42401B7E700E0E0
:1048B80023A087100145F2406244D2444249056171
:1048C8008280B7E700E023A087100945EDB797E697
:1048D800000083C6262383A781B201476394E600BC
:1048E800014582808E23138687026394A5003E8546
:1048F800828005071377F70FB287CDB797E70000D7
:1049080083C75720AA86850703A541B3014712210B
:104918006307D60005071905E36BF7FE014582809A
:104928002A8703A5C1B311E182801C45B227636BB6
:10493800C70003584500B306C8006355D700814631
:10494800639406010841C5B703D3A70093880701FC
:104958006316E30091C192A13E8582808506C687D1
:10496800B3C60608F1BF97E6000083C6A61983A759
:1049780081B601476394E60001458280AE23138621
:10498800C7036394A5003E85828005071377F70F58
:10499800B287CDB7411122C406C697E7000023812C
:1049A800072203A481B705C06C390145B315B028A7
:1049B800B3C5050897C000E0E780E0D29307102749
:1049C8003305F50202942244B24081450145410174
:1049D8006FE0EF99411106C6383D19C73425631EAB
:1049E800D702B24041017DB73C2DE5DF3825E30A07
:1049F800F7FE3CA5814517E5FFFF1305E556EFE0F7
:104A08000F9797E7000083C7E7E389C783A7C1BA71
:104A18005147F8D3B240410182803C2D89C7E39ABF
:104A2800F6FC38A5C1BFD5FEEDBF41114AC017E954
:104A380000001309A9348327890022C426C206C6A8
:104A480097E4000093848410858BE0509DCB97E712
:104A5800000023A9073283C74407C18B85CFEF0025
:104A6800D07A83C7440793F70702E5DF83C7440773
:104A7800228593F7F70C238AF40697B001E0E780C4
:104A8800A0A8EF00907822852244B24092440249BF
:104A9800410109B783C75407858B91CBEF00F076A6
:104AA8008D47230EF406BC5822858297D9BF83C749
:104AB80044071547BD8B6395E7048347B406034550
:104AC80034060146930550025D8DEFF00FD801467C
:104AD80081450545EFF00FBE8327C900858BD5D3E7
:104AE800228597E7000023A1072A97B001E0E78015
:104AF800608941F9B24022449244024941018280CE
:104B080083C744071947BD8BE39DE7F68347B4067F
:104B1800034534060146930550025D8DEFF0EFD250
:104B2800014681450545EFF0EFB88327C900858B1D
:104B3800A9DB228597E7000023A8072497A001E0B6
:104B4800E780C05D7DB7411122C426C206C67C2518
:104B580078452A84BD8B1CA91CA31D476445639511
:104B6800E7340547B8A08347F5058D466393D71802
:104B78005E2DCDE37C491147B18B638DE708314742
:104B88006398E700034715068347F5076304F708AA
:104B98008547BCB019469305640313854400EFD0DC
:104BA8001FB4BC20990793F7F70FBCA0034704066E
:104BB8001377070401CFB83013670704B8B07844F7
:104BC800BA975838B8B3BC208507BCA097E700004F
:104BD800238807FEBC2013F7F703050718B8034717
:104BE800E4051A07D98FBCA083475403858B91E746
:104BF8000347440389476317F70078441C2393E766
:104C080007041CA37C44183898B3B2402244924449
:104C180041018280A147BCB08357C40697E50000D4
:104C28009385C5F21386C1BADCA08357C40603472F
:104C380014067444A1831207BD8BD98FDCB2B4204B
:104C48008547890693F6F60FB4A017E700000347D7
:104C580027F7631EF706183C9387E6008E07231A8A
:104C6800F4069387C708B387E702794510420948D5
:104C7800238A0507C1650CC6938707FBB3C70708D6
:104C880093877716B3C7A70233C70708B387A70266
:104C980086073CD2BC3093E70701BCB07C44B6978A
:104CA8008346240693E60604B4B3B4207C44B6973E
:104CB800D8A3B4207C4421837D8BB69783463406E1
:104CC8009606558FD8B3BC208D07BCA021B71042DB
:104CD800F947385205833357F7023C5268528583A7
:104CE800FD8BAA977CD28D47238AF50633470708A0
:104CF80055B71946639BC7125E2DC1E3930565033B
:104D0800B8B013854400EFD09F9DBC201385A40044
:104D18009907BCA0BC3093E72700BCB08347540375
:104D2800898B95CF0C58BC299DCB1946D105EFD05E
:104D38001F9B78441C2393E707F81CA3BC20990702
:104D480093F7F70FBCA00347040613770704E30F94
:104D580007E6B430784493E60604B4B095B58347C3
:104D6800D40391C778441C2393E707F81CA319467A
:104D78009305E403EFD0BF96D1B7A147BCB08357E2
:104D8800C506DCA08357C506034615066C45A183F6
:104D98001206BD8BD18FDCB1B02017E500001305DA
:104DA800E5DA9385C1BA09061376F60FB0A097E73E
:104DB800000083C7E7E06398E704183C9307E60020
:104DC8008E07231AF4069387C708B387E702794842
:104DD8008946230AD5069441C1658CC6938707FB8B
:104DE800B3C7070893877716B3C7070333C70708FE
:104DF800B38707038607BCD2BC3093E70701BCB072
:104E08007C44B29771BD8C41B851F947058333573B
:104E1800F702BC5103A845068583FD8BC297FCD1D8
:104E2800230AD50633470708C1BFA147BCB083573B
:104E3800C506DCA08357C506034615066C45A18345
:104E48001206BD8BD18FDCB1B02017E50000130529
:104E5800E5CF09061376F60FB0A097E7000083C7E1
:104E680027D683A5C1BAE391E7FA183C9307E60071
:104E78008E07231AF4069387C708B387E702F94613
:104E88000948230A0507416588C5938707FBB3C707
:104E9800070893877716B3C7D70233C70708B387BE
:104EA800D7028607BCD189BF0547639EE706B1478D
:104EB8001CB983475503898BA1CB0C59BC29A9C7B9
:104EC8001946D10513858400EFD07F8178441C23CF
:104ED80093E707F81CA3684419469305640309057A
:104EE800EFD0EFFF116797E7000083A727D3F98F6B
:104EF800E38C07CE7C24B98BE39807CE78441C2337
:104F080093E707021CA3CDB18347D40389C79C202C
:104F180093E707F89CA0684419469305E403210524
:104F2800EFD0EFFB4DBF522D0C559307660093F75A
:104F3800F7031CB913858400E5B7011126CA97E465
:104F480000009384A4E39C4422CC06CE17E400001E
:104F58001304C4BF858B6850C9C32AC697E70000ED
:104F680023A207E2EF00702A034744078947324526
:104F78006307F700034744078D47631CF70283A6BE
:104F8800C1BABC520357450785831307C71263F29A
:104F9800E702BC528583B1C3914703474407E31E28
:104FA800F7FE6244F240D244056117A301E06700AE
:104FB800C37D382D3C3D09CF34256309D70263886A
:104FC800F60238A56244F240D24405616FD09FE1F1
:104FD80099CF382509EF3CA5F5B72AC6EF00F0228E
:104FE80062443245F240D24405616DB2EDF7DC4CC3
:104FF800EDF70347440789476307F700034744076A
:105008008D47E31CF7FC914703474407E31EF7FE6F
:1050180049BF630E0530011122CC06CE26CA4AC804
:105028004EC652C456C2582585472A846316F72CA3
:1050380097E70000938787D4D44F1547638AE60023
:10504800D44F0D476386E600D84FAD476312F70289
:105058006C386244F240D2444249B249224A924AE8
:1050680001450561B315B028B3C505086FF02FFADF
:1050780016311307006497E40000938424AD334786
:10508800D7029C20E8D0850793F7F70F9CA063CA46
:10509800E70097C000E0E780C0A897E700002387F3
:1050A80007AA78249D47631FF70483479406B1C372
:1050B8008356040763ECF6020C24930730041CACF7
:1050C8001305300493F6F60F0146978002E0E78057
:1050D800000222856244F240D2444249B249224A3F
:1050E800924A056117B301E06700A31885062318E3
:1050F800D40693053002054597C000E0E780409B41
:105108002301A4060549238A2407183C8D47631CFC
:10511800F70E97B000E0E780000B0D89630F0514C8
:1051280063162517930760023CA4930750023CAC12
:105138009307700278243CBC85476302F7088965A9
:105148009385F5701305102717DA0000130A8A6E85
:105158008349740197C000E0E78000980E30835AB5
:10516800CA002A8913060064B3855503814613854E
:105178000532B335B50097E002E0E780A006AA84BF
:10518800B335590337460F00130606248146330505
:10519800590397E002E0E780E00483270A00AA9415
:1051A8008297B307950003278A00BE8563E4A700AA
:1051B80063E4E700B385E7404E85EFF0AFE9834746
:1051C8005403898BE9CB8347C403F1C70C58E1C565
:1051D800BC25F1C38947230AF4021946B105130512
:1051E8006403EFD0CFCF0347C407894763E9E70AD1
:1051F80022856244F240D2444249B249224A924A44
:1052080005616FD03FBE89467C346315D70213F71A
:10521800170019CB898B1307500291EB9307700283
:1052280038A43CAC814739B713076002C5BF930760
:105238006002FDB799CF93F617001307500291E665
:10524800898B13B717001307670238A4230D0400CE
:10525800D1BF3C2C130740026368F7009307500244
:105268003CAC3C2C3CA47DBF850793F7F70F3CACC6
:1052780013077002E364F7FEEDB713077002930794
:1052880050023CAC38A4930760026DB51307500276
:1052980093077002FDB78547230AF402A9B70327CD
:1052A800C40A83A681A93C27ADC31C37583397D4B9
:1052B8000000938424589044B387E702DA24B38724
:1052C800E7021307003293870719B3D7E7020327CA
:1052D80044093E973A896364F7006364C700330959
:1052E800C7408296B307A9406374A9009844BA9747
:1052F80003576407E3FEE7EEF2406244D2444249B2
:10530800B249224A924A056182808324840982969E
:1053180063E9A400835764073385A440E37AF5EC76
:10532800E1BF97D7000083A76751BE94E5B7828095
:1053380001114EC697E900009389498122CC03A444
:10534800C9094AC817D900001309C94E0357C9002B
:1053580026CA835464088327040906CEB384E4026A
:1053680037470F009306F7231307072452C456C282
:105378005AC0B694B3D4E40263EE9702138A81A9A3
:10538800B384974083270A00829763E9A402338590
:10539800A4406349050283570404A30F040085074A
:1053A8002310F40483470414639E07102285EFD06A
:1053B8005FFA21AA03278900BA97C9B7832789000A
:1053C800BE94F1B783270A0082970327840863668F
:1053D800E50A198D7E3C0357C9008E07B387E7029B
:1053E8001307003293870719B3D7E70263ECA708BE
:1053F800B74A0F00138BFA23938A0A2483570404AD
:1054080085072310F4048347041481E72285EFD02D
:105418005FF4228597C001E0E780A0CB63130524E1
:10542800032604090327C408832689003297BA870C
:105438006364C7006364D700B307D740783C03565A
:10544800C9002328F408050778BC03576408330704
:10545800C7025A9733575703B384E74063F5E70009
:10546800998EB384F60083270A00829763E6A40422
:105478003385A440E34405F839BF83278900998F11
:105488003E9589BFA145228597C001E0E78080BC91
:10549800A305A40297D7000083A7C7376383071C17
:1054A8006244F240D2444249B249224A924A024BEB
:1054B800894515450561828783278900A697338525
:1054C800A7404DBF2285EFD01FF3228597C001E08A
:1054D800E78020C0631705180355C900835764087F
:1054E800B7460F001386F623B387A70293860624D0
:1054F80003270409230B0402832A8900B297B3D730
:10550800D702636AF716B307F7408326C408232433
:10551800F408014BB387E600BE8463E4D70063E474
:105528005701B38457411E3023289408A1CB8356D2
:1055380004045A3037460F0056B03387E640B38725
:10554800E7023A301306062481468145BA97B3C765
:1055580007083385A7023EB097E002E0E78080C8DD
:1055680011CD2695B3349500A695AA876314BB0080
:1055780063645501B30755412328F40883270A00BB
:105588008297AA8483270A008297E30D95FE8327D2
:105598000A0083248408829763E4A40E3385A44018
:1055A800630B050E035AC90083576408B7440F00FC
:1055B8001387F423B387470393840424BA97B3D794
:1055C800970217D7000003477723BA9763E5A70C1C
:1055D800B3359502835A24025286814633059502D3
:1055E80097E002E0E78000C03389AA0033854A03C8
:1055F80037460F00130606248146814597E002E0EE
:10560800E78040BE15C1B337950252868146B385FF
:10561800B4023385A402BE9597E002E0E78080BC1F
:10562800B38AAA40231154033545A92923AE890812
:1056380038348547631AF704930700FD7CA4814535
:1056480003A501B9EFD0AFD2954717D7000023259E
:10565800F7743707100083A7C1BA98C7060923A8AB
:105668002707F2406244D2444249B249224A924A48
:10567800024B05618280B3065701B387F64071B5C6
:1056880083278900BE9419BF930710FC7CA4814529
:1056980003A581B845BF97D7000023A707548347C0
:1056A80009018DC303A5C1B7EFD04FEC624483272E
:1056B8004900F240D2444249B249224A924A024B36
:1056C80005618287834594026244F240D24442498C
:1056D800B249224A924A024B01450561B315B028E6
:1056E800B3C505086FF0AF92011122CC26CA4EC689
:1056F80006CE4AC852C456C25AC038358547832494
:1057080005092A84AE896314F70C83570508835A60
:10571800C50317DA0000130AEA11035BCA0063FC29
:10572800571914296399E618032785116315071873
:105738000327450A6311071874351D47639DE6164C
:105748002A3DB38AFA409307204E330555030329AF
:10575800440937460F001306062481463305F5022F
:1057680097D7000083C7870933592503B335AB02A0
:105778003E9933490908231324093305AB0297E0FE
:1057880002E0E78020A6B307950033B5A7002E9561
:1057980003278A00BE8419E163E4E700B384E74085
:1057A800B307690337470F009306F7231307072446
:1057B80023A09900B697B3D7E702D69763E4F4001D
:1057C8009D8C31A003278A00B307F740BE94138944
:1057D80081A98327090023A09900829763E2A41076
:1057E8003385A440635D050A8327090017DB0000A1
:1057F800130B4B04829703A709006369E50E198D03
:105808007E3C0357CB008E07B387E70213070032AD
:1058180093870719B3D7E70263EFA70C374A0F003E
:10582800930AFA23130A0A248357040485072310CA
:10583800F4048347041481E72285EFD09FB12285C1
:1058480097C001E0E780E08861E5832604098327A3
:10585800C40803278B00B697BE8463E4D70063E4CB
:10586800E700B384E7407C3C8356CB0023289408A8
:1058780085077CBC83576408B387D702D697B3D70C
:10588800470363E6F40A9D8C8327090023A0990047
:10589800829763E1A40A3385A440E34705F897D7C4
:1058A800000083C7B7F563E6A70697D7000023ADC6
:1058B80087320145B9A88357640837470F00930614
:1058C800F723B387670313070724B697B3D7E7020D
:1058D800E3F8F4EE03278A002697B304F740C5BD22
:1058E80097D7000083A787F5BE94DDBD83278B007B
:1058F800998F3E9531B7A145228597B001E0E780A1
:105908006075A305A40297D7000083A7A7F081EFCD
:105918007D55F2406244D2444249B249224A924AF1
:10592800024B05618280894515458297D5B71D8F41
:10593800BA9499BF83278B00BE94B1BF83A7C1B91E
:1059480098433706CEFF7D161377F7CF13670710F6
:1059580098C303A7C1BB1447370803001375F51F85
:10596800F18E14C783A6C1BA23A8060523A407008D
:10597800904B93F5F507130888151366F60390CB3B
:1059880090431366060890C3F04F137606E0498EDD
:10599800F0CF23AC070423A007065057759A50D7B9
:1059A8009043137606F84D8E90C31306401FF0D22D
:1059B80017D60000232E063C17D600002322063CEB
:1059C800054690C29043B70533001376F6CF90C3CF
:1059D80090431376F6CF1366062090C310474D8E7A
:1059E80010C723A80605D8531317F728D8D3254777
:1059F800F05201C6B04FE37DC7FED8531317F748DE
:105A0800D8D3A8531335450082801387C1BA1443ED
:105A1800BC4ABD9BBCCA01000100010001001C4337
:105A2800B44B93F6F68FB4CB944393E6860094C3B5
:105A3800010001000100010083A6C1B99C4293F74F
:105A4800F7CF93E707109CC203A6C1BB1C46B70655
:105A5800CEFFFD16F58F1CC61C4337070300B8CBD5
:105A680083A741BA99CBD44390479842518F98C2A3
:105A7800944BDC4B9842D98F9CC297D7000023AD3A
:105A88000730828083A7C1BA9C438D8BE9C7411137
:105A9800B7E700E04AC003A9070026C2370720007D
:105AA80006C622C4AA843379E90023A0E7180F1098
:105AB800000017D400001304642C584C8D47631A57
:105AC800F70097D7000083A727050146814545457C
:105AD800829719476391E4048347140289CB83476B
:105AE80004026396970097D70000A389072A584CA9
:105AF800A1476315F700930780101EB0238801A8FB
:105B08002937B2402244B7E700E023A02711924486
:105B18000249410182809D47639BF4008347140238
:105B2800F9D7034704028D47E313F7FC6DBF544CC4
:105B38006389E600584C6306F700584CA147E31FF9
:105B4800F7FA83471402DDFB5C4C2300F402854717
:085B5800A300F40265B782808E
:105B600097010020938181EC17A101201301814945
:105B700017B5FFFF1305854997A5FF1F9385854836
:105B800017A6FF1F1306066963FAC50083220500E6
:105B900023A0550011059105E3EAC5FE17A5FF1FD7
:105BA0001305255C02852A8309CA83830500230027
:105BB00073007D16050385056DFA82802A8311C660
:105BC0002300B3007D16050365FE828003460500B1
:105BD00083C60500050585056313D60065FA330500
:105BE000D6408280B717004083C5870503C8970554
:105BF00003C7970593F5F50F1378F80F1367870020
:105C0000A38CE70403C797051377B70FA38CE704AA
:105C100003C7A70513671700238DE7043717004054
:105C20008347A705858BEDFF0565C1463717004003
:105C30009308F5FF0346A70513661600230DC70456
:105C40000346A705058A6DFE0356C705FD16C20665
:105C50001346F6FF33761601C182B297E1FEA10723
:105C60009183130505801D8DA30C07054205230CA8
:105C7000B70441858280B717004003C777051A052E
:105C80001377E70FA38BE70413974500598D13652E
:105C900035001375F50FA38CA70403C7A705C189A9
:105CA00091C513672700238DE70482801377D70FF0
:105CB000DDBFB717004003C777051377E70FA38B46
:105CC000E704130700F8A38DE7043D47238CE7049E
:105CD00013075003A38CE70403C7A7051377D70F57
:105CE000238DE7048280371700408347A70593E799
:105CF0001700230DF7048347A705858BEDFF3717A2
:105D000000408347A705E207E187E3CC07FE035580
:105D1000C705520551818280B717004003C7E704C9
:105D20000D8941111377C70F498F93068008F3B689
:105D3000068093F6860836C60F100000930670059D
:105D40002380D704930680FA2380D7040F10000025
:105D50002387E70423800704B247F3A707800F10C7
:105D6000000041018280B717004003C7E7020D8998
:105D700041111377C70F498F93068008F3B6068049
:105D800093F6860836C60F10000093067005238030
:105D9000D704930680FA2380D7040F1000002387CE
:105DA000E70223800704B247F3A707800F10000023
:105DB0004101828041112A830148930E407E130FD6
:105DC0000019930F40069318030193D8080163EF5D
:105DD0001E0113030019337365028542FD4363F00E
:105DE000B20A8D4F214F930E400689A87D13336E62
:105DF000E3039308E016630E0E00336EF30393087B
:105E0000D01663080E009378330093B81800938877
:105E1000D816C29813980801135808016DB793F863
:105E20001500138EF5FF6371BF04F908C29813982B
:105E3000080193150E0113580801C181E391F5FF84
:105E40008545630B0300B378D5038145638608005D
:105E50009375350093B51500F105C29513980501AA
:105E6000135808018945D9BFB3881341C2981398C4
:105E7000080193150E0113580801C1818DB77D16D5
:105E8000329879463307C70213D61700BE07420877
:105E90001358080132976146B3F6C60213068070A4
:105EA000B386C6023697A166F58F4207D98FB7161B
:105EB000004003C7F60213770708A303E100034677
:105EC000710003C7F60213770708E314E6FE0347E1
:105ED0007100B71600405DCF130780087337078045
:105EE000137787083AC40F10000037170040930655
:105EF00070052300D704930680FA2300D7040F10FF
:105F00000000232A07038346170393E60608A30825
:105F1000D702230007042247732707800F100000D1
:105F20001166371700407D16545B4C5FAD8EF18EC5
:105F3000E5FE93068008F3B6068093F6860836C61B
:105F40000F100000930670052300D704930680FA13
:105F50002300D7040F1000005CDB8347170393E78F
:105F60000704A308F70223000704B247F3A707803A
:105F70000F1000004101828003C7F6021377070863
:105F8000A303E1000346710003C7F6021377070875
:105F9000E314E6FE0347710065D33DBF55714EDF44
:105FA00086C7A2C5A6C3CAC152DD56DB5AD95ED781
:105FB00062D566D36AD16ECFAA8982C0EF00706FB6
:105FC00093078008F3B7078093F78708BEC20F10C6
:105FD0000000B7170040130770052380E70413077C
:105FE00080FA2380E7040F10000003C7F70213773D
:105FF000770FA387E70203C7F70213678700A3871A
:10600000E702238007049647F3A707800F100000DC
:10601000130B80C1334B65039167938707E8130A1D
:1060200030029546B347F502330A4B033EC8FD875D
:106030003ED2BD67938707A6334AFA021357FA4147
:106040003ACA330740413AD47D873ACC1307A0FBC4
:106050003307EB02B347F702138729003ECEFD87D3
:106060003ED68567938707FA3399E70063E43601E4
:1060700033993701E1679387076A3345F502930740
:1060800000103309A9023349F90293074006330986
:10609000F9029307D0073349F9029357F9413ED8E3
:1060A0008547B3963701B397E7008D878D863EC449
:1060B00036C6954763E9374B930750473687B30792
:1060C000F7023D67130707A6814A814B1304800836
:1060D000371D0040930480FAB3876703B307F0408D
:1060E000B3C7E7023ED0FD873EDA733704801377EB
:1060F0008708BAC40F100000130770052300ED04D1
:10610000930D0D0423009D040F10000003473D056F
:106110001377870FA309ED0403473D0513671700A5
:10612000A309ED0423000D042647732707800F10F1
:106130000000130C7005916C733704801377870887
:10614000BAC60F100000930770052380FD0023805E
:106150009D000F10000003473D05A166136707026D
:10616000A309ED0403570D053367970142074183E7
:106170002318ED0403570D05558F2318ED042380D4
:106180000D003647732707800F10000003473D05B9
:1061900013770702630D073C03473D05218B6DDF35
:1061A000880097B0FF1FE78060C0733704801377C3
:1061B0008708BACA0F10000023808D0123809D003C
:1061C0000F10000003473D05A1661377F70DA309E3
:1061D000ED0403473D0513670702A309ED040357C8
:1061E0000D0533679701420741832318ED040357D8
:1061F0000D05558F2318ED0423800D005647732796
:1062000007800F10000003473D051377070263075F
:10621000073803473D05218B6DFF97A0FF1FE780DF
:1062200060FF2A873ADC97A0FF1FE780A0FE625735
:10623000E30AE5FE03570D0506453367970142075C
:1062400041832318ED0497B0FF1FE780E0B70347B1
:106250003D05218B6DDF03570D0583462D05116626
:106260007D16B386C602C247718F13D6F641BA9621
:10627000B388F640925733B7E60032971D8FD24766
:10628000B3B61601158F63C6E700631CF700637A87
:106290001A01E247634BF7326395E700A25763E6C2
:1062A000F832894663F576337337048013778708AD
:1062B000BAD00F100000130770052300ED0423006F
:1062C0009D040F10000003473D0593F6F90F137767
:1062D000870FA309ED0403473D05558FA309ED047E
:1062E00023000D040657732707800F1000001306C4
:1062F000700503473D051D8B6313373773370480E3
:1063000013778708BAD40F10000013077005230015
:10631000ED0423009D040F10000003473D05916626
:106320001377F70DA309ED0403473D051367070233
:10633000A309ED0403570D05558F2318ED040357EA
:106340000D05A166558F2318ED0423000D04265773
:10635000732707800F1000009306700503473D0563
:10636000137707026307073203473D05218B6DDF73
:10637000880097B0FF1FE78060A37337048013770E
:106380008708BAD80F100000130770052300ED042A
:1063900023009D040F10000003473D05916613770D
:1063A000F70DA309ED0403473D0513670702A30991
:1063B000ED0403570D05558F2318ED0403570D0504
:1063C000A166558F2318ED0423000D04465773274B
:1063D00007800F1000009306700503473D051377F3
:1063E00007026303072E03473D05218B6DFF97A02E
:1063F000FF1FE78020E22A8C97A0FF1FE78080E143
:10640000E30C85FF03570D0591660645558F23184C
:10641000ED0497B0FF1FE780209B03473D05218BCC
:106420006DDF7337048013778708BADC0F10000024
:10643000130770052300ED0423009D040F100000D6
:1064400003473D051377F70DA309ED0423000D0461
:106450006657732707800F10000003570D0583460A
:106460002D0511667D16B386C602718FC25713D6ED
:10647000F641BA9633B7E600329733882641B3B671
:1064800006011D8F158F6346E000631A0726630817
:1064900008261305800C3307E5020256D256B335A1
:1064A000050333050503BA95EFB0D2149306150022
:1064B00033B5A6002E951357F501BA9633B7E6000B
:1064C0002A971316F70185820587D18E6346E0006F
:1064D0006313072E6381062E0356CD021582B30582
:1064E000D60033B6C50032976348E000631607361E
:1064F0001307F00F6372B736094763735727930783
:106500008008F3B7078093F78708BEDE0F100000FE
:10651000B7170040130770052380E704130780FABC
:106520002380E7040F10000003D7C7028966811695
:10653000558F420741832396E70223800704F657CD
:10654000F3A707800F100000BE402E449E440E4962
:10655000FA596A5ADA5A4A5BBA5B2A5C9A5C0A5D53
:10656000FA4D6961828022479307504789BE73378D
:10657000048013778708BAC80F10000023808D01AC
:1065800023809D000F10000003473D05136707029D
:10659000A309ED0423800D004647EDB67337048050
:1065A00013778708BACC0F10000023808D01238059
:1065B0009D000F10000003473D0513670702A30964
:1065C000ED0423800D0066471DB9E39F0BCC724696
:1065D000B2569315170013D3F80113951800B3653D
:1065E000B3003ADE46DCEFB0F2007257850B93FB46
:1065F000FB0F6346E00031EFE258638C080493061A
:10660000150033B5A600AA9513D7F501BA9633B78E
:10661000E6002E9785827E07558FF336048093F629
:106620008608B6CE0F10000023808D0123809D00C8
:106630000F1000008356CD02369742074183231680
:10664000ED0223800D007647732707800F100000AE
:10665000E5B49306F5FF13351500898D75B77337CB
:10666000048013778708BAD20F1000002300CD04EE
:1066700023009D040F10000003473D05558FA3091B
:10668000ED0423000D041657732707800F10000038
:106690008DB17337048013778708BAD60F100000C6
:1066A0002300DD0423009D040F10000003473D0577
:1066B00013670702A309ED0423000D04365773275F
:1066C00007800F10000059B97337048013778708CB
:1066D000BADA0F1000002300DD0423009D040F1020
:1066E000000003473D0513670702A309ED042300DB
:1066F0000D045657732707800F100000F9B9930552
:10670000800C3387E50233850503B3B50503BA95DD
:10671000154763733705A247130750473387E702CE
:10672000330660413306E6023D67130707A633468A
:10673000E6029356F641EFB0E26B1306F5FF133510
:106740001500898D13D7F5013A963337E6002E9759
:106750009316F70105828DBBB247130750477DBFE3
:106760001307800873370780137787083AC10F1023
:106770000000B7160040130770052380E6041307D6
:1067800080FA2380E6040F10000003D7C6020566D6
:1067900001161377F70F518F420741832396E602C4
:1067A000238006040A47732707800F100000850A1C
:1067B00093FAFA0F1DBA33E6E60059CE0356CD021E
:1067C000B335D0003307E0400D8F3305D04015823C
:1067D0006345E00051E36371A608094763705705FC
:1067E00093078008F3B7078093F787083EC30F101D
:1067F0000000B7170040130770052380E704130754
:1068000080FA2380E7040F10000003D7C7027D8BB6
:106810002396E702238007049A471DB37337048049
:10682000137787083AC50F1000001307700523007F
:10683000ED0423009D040F1000000357CD02856670
:1068400081161377F70F558F420741832316ED0208
:1068500023000D042A4781BF93078008F3B7078000
:1068600093F787083EC70F100000B71700401307C3
:1068700070052380E704130780FA2380E7040F10D4
:10688000000003D7C7029606369742074183239636
:10689000E70223800704BA4765B141111307800856
:1068A000F337078093F787083EC40F100000B7172F
:1068B0000040930570052380B704130680FA2380F7
:1068C000C7040F10000083C6170393F6860EA38833
:1068D000D70223800704A246F3A606800F1000000B
:1068E00073370780137787083AC60F10000023809C
:1068F000B7042380C7040F10000003C71703498F94
:10690000136707011377F70FA388E70223800704B3
:10691000B247F3A707800F100000410182800111E8
:1069200022CC06CE2A8497A0FF1FE780A08E229556
:10693000B707C0A863F5A700B70740573E95930770
:106940008008F3B7078093F787083EC60F10000052
:10695000B7170040130770052380E704130780FA78
:106960002380E7040F100000C8DB03C71703136779
:106970000702A388E70223800704B247F3A7078032
:106980000F100000F240624405618280411113073C
:10699000000211C57D151335150013174500930727
:1069A0008008F3B7078093F787083EC60F100000F2
:1069B000B7170040930670052380D704930680FA2A
:1069C0002380D7040F10000083C617031347F7FF77
:1069D000758FA388E70223800704B247F3A70780D7
:1069E0000F10000041018280914763EAB70897E7E2
:1069F00002009387E7B28A05BE9598413E97B71784
:106A000000409387470B028794431345F5FF3717E0
:106A10000040E98E94C39306070B9C42E98F9CC209
:106A20009307070A9843798D88C3828090439346E1
:106A3000F5FF37170040758E90C31306070B1C42F5
:106A4000C98F1CC29307070A9843F98E94C38280AA
:106A5000944337170040C98E94C39306070B9C429A
:106A60001345F5FF65BF94431347F5FF758F98C332
:106A7000B71700409387070A9843498F98C38280CD
:106A80009843498FEDB7914763EAB70897E702004B
:106A9000938747AA8A05BE9598413E97B71700404D
:106AA0009387470D028794431345F5FF371700403E
:106AB000E98E94C39306070D9C42E98F9CC293070D
:106AC000070C9843798D88C3828090439346F5FFE5
:106AD00037170040758E90C31306070D1C42C98FEF
